:020000040800F2
:1000000000500020D5130008050F00080B0F000852
:10001000110F0008170F00081D0F00080000000056
:10002000000000000000000000000000230F000896
:100030002F0F0008000000003B0F0008470F0008CA
:100040001D1400081D1400081D1400081D140008CC
:100050001D1400081D1400081D1400081D140008BC
:100060001D1400081D1400081D140008550F000879
:100070001D1400081D1400081D1400081D1400089C
:100080001D1400081D140008690F00081D14000845
:100090001D1400081D1400081D1400081D1400087C
:1000A0001D1400087D0F00081D1400081D14000811
:1000B000910F00081D1400081D1400081D140008ED
:1000C0001D1400081D1400081D1400081D1400084C
:1000D0001D1400081D1400081D1400081D1400083C
:1000E0001D1400081D1400081D1400080000000065
:1000F0000000000000000000000000000000000000
:0C01000000000000000000005FF808F1A3
:1001100080B584B000AF3B1D00221A605A609A601F
:100120002E4B2F4A1A602D4B4FF480729A602B4B46
:1001300001221A73294B00221A75284B4FF46022B2
:10014000DA61264B00225A60244B04221A612348AC
:1001500001F0ECF90346002B01D000F08BFC0423E6
:100160007B600123BB600723FB603B1D19461B48D6
:1001700001F076FC0346002B01D000F07BFC052348
:100180007B600223BB603B1D1946144801F068FCEC
:100190000346002B01D000F06DFC06237B60032397
:1001A000BB603B1D19460D4801F05AFC0346002B6D
:1001B00001D000F05FFC07237B600423BB603B1D84
:1001C0001946064801F04CFC0346002B01D000F014
:1001D00051FC00BF1037BD4680BD00BFDC010020D0
:1001E0000024014080B588B000AF786007F11003AB
:1001F00000221A605A609A60DA607B681B682C4A99
:10020000934251D12B4B9B692A4A43F4007393616B
:10021000284B9B6903F40073FB60FB68254B9B69CB
:10022000244A43F004039361224B9B6903F00403C7
:10023000BB60BB68F0233B6103237B6107F11003C4
:1002400019461D4802F0BAF91C4B1D4A1A601B4B97
:1002500000225A60194B00229A60184B8022DA6003
:10026000164B4FF400721A61144B4FF400625A613E
:10027000124B20229A61114B0022DA610F4801F0E3
:10028000AFFF0346002B01D000F0F4FB7B680B4A64
:100290001A620A4A7B68536200220021122001F090
:1002A00068FF122001F081FF00BF2037BD4680BDEE
:1002B0000024014000100240000801400C02002010
:1002C0000800024080B582B000AF0C4B5B690B4A5E
:1002D00043F001035361094B5B6903F001037B6049
:1002E0007B68002200210B2001F043FF0B2001F06E
:1002F0005CFF00BF0837BD4680BD00BF0010024054
:1003000080B588B000AF07F1100300221A605A6070
:100310009A60DA60454B9B69444A43F0100393614D
:10032000424B9B6903F01003FB60FB683F4B9B69EA
:100330003E4A43F0200393613C4B9B6903F020034A
:10034000BB60BB68394B9B69384A43F00403936137
:10035000364B9B6903F004037B607B68334B9B69DE
:10036000324A43F008039361304B9B6903F0080362
:100370003B603B6800224FF400512D4802F0B9FA6F
:1003800000220F212B4802F0B4FA002240F2FB4178
:10039000294802F0AEFA4FF400533B6101237B6120
:1003A0000023BB610223FB6107F1100319462048BB
:1003B00002F004F90F233B6101237B610023BB6141
:1003C0000223FB6107F1100319461A4802F0F6F800
:1003D00040F2FB433B6101237B610023BB610223AD
:1003E000FB6107F110031946134802F0E7F84FF4D8
:1003F0006C533B6100237B610023BB6107F1100359
:1004000019460D4802F0DAF84FF400433B6100232F
:100410007B610023BB6107F110031946054802F018
:10042000CDF800BF2037BD4680BD00BF00100240A0
:100430000010014000080140000C014080B500AFF1
:1004400001224021074802F054FA012001F04AF845
:1004500000224021034802F04CFA012001F042F84A
:1004600000BF80BD000C014080B582B000AF0346E4
:10047000FB71FB7903F00103DBB21A460821154832
:1004800002F037FAFB795B08DBB203F00103DBB261
:100490001A4604210F4802F02CFAFB799B08DBB2C4
:1004A00003F00103DBB21A4602210A4802F021FAE6
:1004B000FB79DB08DBB203F00103DBB21A46012152
:1004C000044802F016FAFFF7B9FF00BF0837BD462F
:1004D00080BD00BF0008014080B582B000AF034678
:1004E000FB71002280210B4802F003FAFB791B0903
:1004F000DBB21846FFF7B8FFFB7903F00F03DBB25E
:100500001846FFF7B1FF022000F0ECFF00BF0837EC
:10051000BD4680BD000C014080B582B000AF0346EF
:10052000FB71012280210B4802F0E3F9FB791B09E2
:10053000DBB21846FFF798FFFB7903F00F03DBB23D
:100540001846FFF791FF012000F0CCFF00BF0837ED
:10055000BD4680BD000C014080B582B000AF786020
:1005600007E07B681B781846FFF7D6FF7B680133EE
:100570007B607B681B78002BF3D100BF00BF08377E
:10058000BD4680BD80B584B000AF03460A46FB710E
:100590001346BB710A4BFB60FB7910333B4413F8E5
:1005A000042CBB791344DBB25BB263F07F035BB214
:1005B000DBB21846FFF790FF00BF1037BD4680BD85
:1005C0000040145480B500AF322000F08BFF0320B0
:1005D000FFF74AFF052000F085FF0320FFF744FFE7
:1005E000012000F07FFF0320FFF73EFF012000F015
:1005F00079FF0220FFF738FF2820FFF76DFF0C205E
:10060000FFF76AFF0620FFF767FF0120FFF764FF8F
:10061000022000F067FF00BF80BD000090B58FB0E2
:1006200000AF00F0FDFEC82000F05CFF00237B63FC
:1006300000F058F9FFF764FEFFF744FEFFF768FD8E
:1006400000F052FE00F0C4FD00F072FD994802F087
:100650004DFF994802F04AFFFFF7B4FF0120FFF772
:100660003BFF00210020FFF78DFF9448FFF774FF48
:100670004FF4FA6000F036FF0120FFF72DFF002154
:100680000020FFF77FFF0120FFF726FF0021002059
:10069000FFF778FF8A48FFF75FFF012000F0AAFB11
:1006A0004FF40051874802F03CF9874801F0D2FB33
:1006B00004228649844801F011F8642000F012FFFA
:1006C0000120FFF709FF814B1B68184607F05EF910
:1006D00003463B637D4B5B68184607F057F90346BA
:1006E000FB627A4B9B68184607F050F90346BB62E1
:1006F000764BDB68184607F049F903467B62744B7A
:100700007B60391D42F210730422724803F00EFB25
:10071000786A07F093F90446B86A07F08FF9034640
:100720001946204600F0ACF900F0D2FE02467B6B81
:10073000D31A642B04D900F0CBFE786300F03CFBA5
:10074000386B06F03DFD02460B4607F11C0062497E
:1007500004F052F900210020FFF714FF07F11C03F9
:100760001846FFF7F9FE07F11C03184604F064F978
:1007700003469AB207F11C0142F21073554803F088
:10078000D5FA391D42F210730422524803F0CEFA12
:10079000F86A06F015FD02460B4607F108004E49BF
:1007A00004F02AF901210120FFF7ECFE07F108030C
:1007B0001846FFF7D1FE07F11C03184604F03CF978
:1007C00003469AB207F1080142F21073414803F060
:1007D000ADFA391D42F2107304223E4803F0A6FA26
:1007E00042F2107305223D493A4803F09FFAB86A75
:1007F00006F0E6FC02460B4607F10800364904F015
:10080000FBF802210220FFF7BDFE07F1080318469E
:10081000FFF7A2FE07F10803184604F00DF903469E
:100820009AB207F1080142F210732A4803F07EFAE7
:10083000391D42F210730422264803F077FA42F27F
:10084000107305222649234803F070FA786A06F0EF
:10085000B7FC02460B4607F108001F4904F0CCF82C
:1008600003210320FFF78EFE07F108031846FFF768
:1008700073FE07F10803184604F0DEF803469AB247
:1008800007F1080142F21073124803F04FFA391DC4
:1008900042F2107304220F4803F048FA391D42F265
:1008A000107304220B4803F041FA4FF4FA7000F081
:1008B00019FE02E788020020D00200207C7A00089E
:1008C000947A000800100140DC0100205002002052
:1008D0002A2A2A0018030020A47A0008AC7A00080B
:1008E000B47A000880B594B000AF07F1280328223D
:1008F0000021184603F018FC07F1140300221A60C7
:100900005A609A60DA601A613B1D00221A605A60D0
:100910009A60DA600123BB624FF48033FB620023EC
:100920003B630123BB6302237B644FF48033BB64CE
:100930004FF4E013FB6407F12803184602F00AF8AD
:100940000346002B01D000F095F80F237B610223B2
:10095000BB610023FB614FF480633B624FF4806313
:100960007B6207F114030221184602F075FA034670
:10097000002B01D000F07EF802237B604FF480430F
:10098000FB603B1D184602F0F5FB0346002B01D02F
:1009900000F070F800BF5037BD4680BD80B582B012
:1009A00000AF78607B681B68B3F1804F24D12D4B7A
:1009B0001B78DBB2012B1FD14FF400712A4801F0E4
:1009C00081FF0346002B06D11021274801F07AFF52
:1009D0000346012B3BD04FF48071234801F072FF96
:1009E0000346002B06D110211F4801F06BFF034680
:1009F000002B2ED000F088F97B681B681B4A9342BD
:100A00002CD11B4B1B78DBB2012B27D14FF480512B
:100A1000154801F057FF0346002B06D1022112486A
:100A200001F050FF0346012B15D04FF400610E4832
:100A300001F048FF0346002B06D102210A4801F0CD
:100A400041FF0346002B08D000F08AF906E000BF02
:100A500004E000BF02E000BF00E000BF0837BD4671
:100A600080BD00BF68020020000C0140002C014046
:100A70006902002080B400AF72B600BFFEE700003C
:100A800080B586B000AF78603960944A7B681360A7
:100A9000924B1B6840F6660293423DD94FF40071B9
:100AA0008F4801F00FFF0346002B0BD18D4B002226
:100AB0001A708D4802F06CFD00220821884801F070
:100AC00018FF08E1874B01221A7001221021844887
:100AD00001F00FFF814B1B6840F6B24203FB02F2AC
:100AE000824B1344824AA2FB03129B1A5B081344F5
:100AF0009B0AC3F55A630C333B617B4B1B683A6915
:100B0000DA62794A3B69D360774B1B6800225A62EC
:100B1000754802F0EBFC4BE0704B1B6840F29D7295
:100B200093423AD84FF480716D4801F0CBFE0346F2
:100B3000002B0BD16B4B00221A706B4802F028FD82
:100B400000220821664801F0D4FEC4E0654B012272
:100B50001A7000221021624801F0CBFE5F4B1B6827
:100B6000644A03FB02F2644B13445B08634AA2FB32
:100B70000323DB09C3F55A630C337B615A4B1B68B3
:100B80007A69DA62584A7B69D360574B1B68002246
:100B90005A62554802F0AAFC0AE0524B00221A7031
:100BA000514802F0F5FC002208214D4801F0A1FE59
:100BB0004A4A3B681360494B1B6840F66602934201
:100BC0003DD94FF48051464801F07CFE0346002B8E
:100BD0000BD14B4B00221A704A4802F0D9FC00227C
:100BE00001213F4801F085FE75E0454B01221A7056
:100BF000012202213A4801F07CFE384B1B6840F686
:100C0000B24203FB02F2394B1344394AA2FB0312EE
:100C10009B1A5B0813449B0AC3F55A630C33BB60F1
:100C2000384B1B68BA68DA62364ABB68D360354B0A
:100C30001B6800225A62334802F058FC4BE0274BF5
:100C40001B6840F29D7293423AD84FF400612448E9
:100C500001F038FE0346002B0BD1294B00221A70FD
:100C6000284802F095FC002201211D4801F041FEB8
:100C700031E0234B01221A7000220221184801F0B2
:100C800038FE164B1B681B4A03FB02F21A4B134437
:100C90005B081A4AA2FB0323DB09C3F55A630C3332
:100CA000FB60184B1B68FA68DA62164AFB68D3606F
:100CB000144B1B6800225A62124802F017FC0AE02B
:100CC0000F4B00221A700F4802F062FC0022012133
:100CD000034801F00EFE1837BD4680BD6C020020AF
:100CE000000C014068020020D0020020146195FF32
:100CF000418B8E0D4EF3FFFFDCB3600055B39B219B
:100D0000690200208802002080B500AF0821114848
:100D100001F007FE4FF400510F4801F002FE0821D8
:100D20000C4801F0CFFD0346012B11D110210948D9
:100D300001F0C8FD0346012B05D1084B1B680133A8
:100D4000064A136004E0054B1B68013B034A13602D
:100D500000BF80BD000C0140001001406002002077
:100D600080B500AF0121114801F0DBFD4FF40051C7
:100D70000F4801F0D6FD01210C4801F0A3FD034608
:100D8000012B11D10221094801F09CFD0346012BE2
:100D900005D1084B1B680133064A136004E0054B7C
:100DA0001B68013B034A136000BF80BD000C01407B
:100DB000001001406402002080B500AF0A4B1B68A0
:100DC000184606F0E7FD0346184606F0F9F9024614
:100DD0000B460649064803F00FFE00210120FFF7ED
:100DE000D1FB00BF80BD00BF60020020BC7A0008BC
:100DF0007002002080B584B000AF78600023FB73E0
:100E000001221021244801F074FD10E0082122483D
:100E100001F087FD4FF480711F4801F053FD034638
:100E2000002B01D10123FB73052000F05BFBFB7B52
:100E3000002BEBD000221021174801F05AFD0023AF
:100E4000FB7301220221144801F053FD15E001213A
:100E5000114801F066FD4FF40051104801F061FDAA
:100E60004FF400610C4801F02DFD0346002B01D129
:100E70000123FB73052000F035FBFB7B002BE6D044
:100E800000220221044801F034FD142000F02AFB66
:100E900000BF1037BD4680BD000C0140001001406E
:100EA00080B485B000AF154B9B69144A43F0010331
:100EB0009361124B9B6903F00103BB60BB680F4B4E
:100EC000DB690E4A43F08053D3610C4BDB6903F0BE
:100ED00080537B607B680A4B5B68FB60FB6823F098
:100EE000E063FB60FB6843F08063FB60044AFB68DF
:100EF000536000BF1437BD4680BC704700100240ED
:100F00000000014080B400AFFEE780B400AFFEE710
:100F100080B400AFFEE780B400AFFEE780B400AF5E
:100F2000FEE780B400AF00BFBD4680BC704780B410
:100F300000AF00BFBD4680BC704780B400AF00BFAB
:100F4000BD4680BC704780B500AF00F0AFFA00BF6F
:100F500080BD000080B500AF024801F0FBF900BF82
:100F600080BD00BF0C02002080B500AF024800F039
:100F700093FC00BF80BD00BFDC01002080B500AF46
:100F8000024802F033FB00BF80BD00BF8802002092
:100F900080B500AF024802F029FB00BF80BD00BF52
:100FA000D002002080B400AF01231846BD4680BCAB
:100FB000704780B582B000AF7860396003F08AF87E
:100FC000034616221A604FF0FF3318460837BD4615
:100FD00080BD80B582B000AF78604FF0FF31786897
:100FE000FFF7E7FFFEE780B586B000AFF860B960B5
:100FF0007A6000237B610AE0AFF300800146BB68A2
:101000005A1CBA60CAB21A707B6901337B617A6973
:101010007B689A42F0DB7B6818461837BD4680BD76
:1010200080B586B000AFF860B9607A6000237B615C
:1010300009E0BB685A1CBA601B781846AFF3008001
:101040007B6901337B617A697B689A42F1DB7B685B
:1010500018461837BD4680BD80B483B000AF7860B5
:101060004FF0FF3318460C37BD4680BC704780B444
:1010700083B000AF786039603B684FF400525A602B
:10108000002318460C37BD4680BC704780B483B03F
:1010900000AF7860012318460C37BD4680BC70470E
:1010A00080B485B000AFF860B9607A60002318465C
:1010B0001437BD4680BC704780B586B000AF7860FD
:1010C000144A154BD31A7B617B693B61134B1B6838
:1010D000002B02D1114B124A1A60104B1A687B6820
:1010E00013443A699A4207D202F0F4FF03460C22F5
:1010F0001A604FF0FF3309E0084B1B68FB60074B99
:101100001A687B681344054A1360FB681846183751
:10111000BD4680BD00500020000400008402002075
:101120007403002080B400AF00BFBD4680BC704790
:1011300080B586B000AF07F1080300221A605A603C
:101140009A60DA603B4600221A605A601E4B1F4AC2
:101150001A601D4B23225A601B4B00229A601A4BC7
:101160004FF4FA62DA60184B00221A61164B002223
:101170005A61154B00229A61134802F067F9034641
:10118000002B01D0FFF776FC4FF48053BB6007F1D2
:10119000080319460C4802F019FB0346002B01D046
:1011A000FFF768FC00233B6000237B603B46194649
:1011B000054802F0FBFC0346002B01D0FFF75AFC68
:1011C00000BF1837BD4680BD88020020002C0140BA
:1011D00080B586B000AF07F1080300221A605A609C
:1011E0009A60DA603B4600221A605A601D4B4FF04D
:1011F00080421A601B4B23225A601A4B00229A60CD
:10120000184B4FF4FA62DA60164B00221A61154B44
:1012100000229A61134802F019F90346002B01D00D
:10122000FFF728FC4FF48053BB6007F10803194611
:101230000C4802F0CBFA0346002B01D0FFF71AFC52
:1012400000233B6000237B603B461946054802F0C3
:10125000ADFC0346002B01D0FFF70CFC00BF183794
:10126000BD4680BDD002002080B584B000AF78605C
:101270007B681B681A4A934214D11A4B9B69194A1E
:1012800043F400639361174B9B6903F40063FB60B5
:10129000FB6800220021192000F06BFF192000F0EC
:1012A00084FF18E07B681B68B3F1804F13D10D4BAE
:1012B000DB690C4A43F00103D3610A4BDB6903F09D
:1012C0000103BB60BB68002200211C2000F051FF1D
:1012D0001C2000F06AFF00BF1037BD4680BD00BF74
:1012E000002C01400010024080B500AF114B124AA3
:1012F0001A60104B4FF4E1325A600E4B00229A6094
:101300000C4B0022DA600B4B00221A61094B0C22B5
:101310005A61084B00229A61064B0022DA610548A7
:1013200002F0B4FC0346002B01D0FFF7A3FB00BF83
:1013300080BD00BF180300200038014080B588B090
:1013400000AF786007F1100300221A605A609A60BB
:10135000DA607B681B681C4A934231D11B4B9B6946
:101360001A4A43F480439361184B9B6903F480430A
:10137000FB60FB68154B9B69144A43F004039361BF
:10138000124B9B6903F00403BB60BB684FF400730E
:101390003B6102237B610323FB6107F110031946C4
:1013A0000B4801F00BF94FF480633B6100237B6134
:1013B0000023BB6107F110031946054801F0FEF850
:1013C00000BF2037BD4680BD0038014000100240FC
:1013D00000080140FFF7A6FE0B480C490C4A002309
:1013E00002E0D458C4500433C4188C42F9D3094ADB
:1013F000094C002301E013600432A242FBD302F047
:101400006FFEFFF70BF9704700000020DC010020A1
:101410003C7F0008DC01002074030020FEE7000090
:1014200080B500AF084B1B68074A43F010031360F8
:10143000032000F093FE0F2000F008F8FFF730FDC6
:101440000023184680BD00BF0020024080B582B056
:1014500000AF7860124B1A68124B1B7819464FF494
:101460007A73B3FBF1F3B2FBF3F3184600F0ABFE73
:101470000346002B01D001230EE07B680F2B0AD816
:10148000002279684FF0FF3000F073FE064A7B6857
:101490001360002300E0012318460837BD4680BDD5
:1014A00000000020080000200400002080B400AFED
:1014B000054B1B781A46054B1B681344034A1360FF
:1014C00000BFBD4680BC70470800002060030020BC
:1014D00080B400AF024B1B681846BD4680BC704705
:1014E0006003002080B584B000AF7860FFF7F0FFA4
:1014F000B8607B68FB60FB68B3F1FF3F05D00A4B27
:101500001B781A46FB681344FB6000BFFFF7E0FF3F
:101510000246BB68D31AFA689A42F7D800BF00BFE8
:101520001037BD4680BD00BF0800002080B586B0E2
:1015300000AF78600023FB7500233B610023BB6094
:101540000023FB607B68002B01D10123BEE07B6898
:101550009B68002B7B689B6A002B09D17B6800226B
:10156000DA627B68002283F824207868FEF73AFE6E
:10157000786800F0C7FB0346FB757B689B6A03F045
:101580001003002B40F09980FB7D002B40F09580EC
:101590007B689B6A23F4885323F0020343F0020222
:1015A0007B689A627B685A687B68DB691A437B6850
:1015B0001B7B5B001343BA681343BB607B689B686B
:1015C000B3F5807F03D07B689B68012B02D14FF479
:1015D000807300E000233A6913433B617B681B7D05
:1015E000012B19D17B681B7B002B09D17B689B6980
:1015F000013B5A033B69134343F400633B610BE037
:101600007B689B6A43F020027B689A627B68DB6A96
:1016100043F001027B68DA627B681B685B6823F435
:1016200069417B681B683A690A435A607B681B689A
:101630009A68284B13407A681268B9680B43936024
:101640007B689B68B3F5807F03D07B689B68012B28
:1016500004D17B681B69013B1B05FB607B681B6831
:10166000DB6A23F470017B681B68FA680A43DA625C
:101670007B681B689A68184B1340BA689A420BD172
:101680007B680022DA627B689B6A23F0030343F0E5
:1016900001027B689A6218E07B689B6A23F0120360
:1016A00043F010027B689A627B68DB6A43F00102B8
:1016B0007B68DA620123FB7507E07B689B6A43F075
:1016C00010027B689A620123FB75FB7D1846183770
:1016D000BD4680BDFDF7E1FFFE0E1FFF80B586B061
:1016E00000AFF860B9607A600023FB75FB681B6887
:1016F000644A934204D0FB681B68634A934206D154
:10170000604B5B6803F47023002B40F0B380FB68F0
:1017100093F82430012B01D10223AEE0FB680122B3
:1017200083F82420F86800F093FA0346FB75FB7DEC
:10173000002B40F09A80FB689B6A23F4706323F0CF
:10174000010343F48072FB689A62FB681B684E4A8F
:10175000934205D14B4B5B6803F47023002B15D1EA
:10176000FB689B6A23F48012FB689A62FB681B6823
:101770005B6803F48063002B26D0FB689B6A23F42C
:10178000405343F48052FB689A621DE0FB689B6AF9
:1017900043F48012FB689A62FB681B68394A9342E3
:1017A00004D0FB681B68384A93420DD1354B5B6807
:1017B00003F48063002B07D0FB689B6A23F440533B
:1017C00043F48052FB689A62FB689B6A03F480537F
:1017D000002B06D0FB68DB6A23F00602FB68DA62A6
:1017E00002E0FB680022DA62FB68002283F8242012
:1017F000FB681B6A254A9A62FB681B6A244ADA6204
:10180000FB681B6A234A1A63FB681B686FF00202BD
:101810001A60FB681B689A68FB681B6842F4807258
:101820009A60FB68186AFB681B684C331946BA68F3
:101830007B6800F02FFDFB681B689B6803F4602346
:10184000B3F5602F08D1FB681B689A68FB681B68BA
:1018500042F4A0029A600FE0FB681B689A68FB687C
:101860001B6842F480129A6006E0FB68002283F84D
:10187000242001E00123FB75FB7D18461837BD4687
:1018800080BD00BF0024014000280140871D0008E2
:10189000031E00081F1E000880B584B000AF7860EA
:1018A0007B681B681B68FB607B681B685B68BB60B0
:1018B000BB6803F02003002B3ED0FB6803F002035B
:1018C000002B39D07B689B6A03F01003002B05D1F5
:1018D0007B689B6A43F400727B689A627B681B6832
:1018E0009B6803F46023B3F5602F1DD17B681B7BDD
:1018F000002B19D17B681B685A687B681B6822F033
:1019000020025A607B689B6A23F480727B689A622B
:101910007B689B6A03F48053002B05D17B689B6A2C
:1019200043F001027B689A62786800F074F87B6883
:101930001B686FF012021A60BB6803F08003002B73
:101940004DD0FB6803F00403002B48D07B689B6AF2
:1019500003F01003002B05D17B689B6A43F400520F
:101960007B689A627B681B689B6803F4E043B3F56D
:10197000E04F12D07B681B685B6803F48063002B28
:1019800025D17B681B689B6803F46023B3F5602F47
:101990001DD17B681B7B002B19D17B681B685A68A3
:1019A0007B681B6822F080025A607B689B6A23F484
:1019B00080527B689A627B689B6A03F48073002B79
:1019C00005D17B689B6A43F001027B689A62786864
:1019D00000F0EEFA7B681B686FF00C021A60BB68BF
:1019E00003F04003002B12D0FB6803F00103002B2F
:1019F0000DD07B689B6A43F480327B689A6278687A
:101A000000F01BF87B681B686FF001021A6000BFD2
:101A10001037BD4680BD80B483B000AF786000BF92
:101A20000C37BD4680BC704780B483B000AF78608F
:101A300000BF0C37BD4680BC704780B483B000AF98
:101A4000786000BF0C37BD4680BC704780B483B05F
:101A500000AF786000BF0C37BD4680BC7047000007
:101A600080B485B000AF786039600023FB73002339
:101A7000BB607B6893F82430012B01D10223DCE0AA
:101A80007B68012283F824203B685B68062B1CD806
:101A90007B681B68596B3B685A6813469B0013446C
:101AA000053B1F2202FA03F3DB4319403B68186829
:101AB0003B685A6813469B001344053B00FA03F247
:101AC0007B681B680A435A633CE03B685B680C2BED
:101AD0001CD87B681B68196B3B685A6813469B00CF
:101AE0001344233B1F2202FA03F3DB4319403B68F4
:101AF00018683B685A6813469B001344233B00FA5E
:101B000003F27B681B680A431A631BE07B681B684F
:101B1000D96A3B685A6813469B001344413B1F2215
:101B200002FA03F3DB4319403B6818683B685A68C4
:101B300013469B001344413B00FA03F27B681B6889
:101B40000A43DA623B681B68092B1CD97B681B6857
:101B5000D9683B681A6813465B0013441E3B072292
:101B600002FA03F3DB4319403B6898683B681A6844
:101B700013465B0013441E3B00FA03F27B681B68AC
:101B80000A43DA6019E07B681B6819693B681A68C8
:101B900013465B001344072202FA03F3DB431940A8
:101BA0003B6898683B681A6813465B00134400FA68
:101BB00003F27B681B680A431A613B681B68102BA1
:101BC00003D03B681B68112B32D17B681B681D4A10
:101BD000934225D17B681B689B6803F40003002BAC
:101BE00026D17B681B689A687B681B6842F40002F8
:101BF0009A603B681B68102B1AD1134B1B68134A61
:101C0000A2FB03239A0C13469B0013445B00BB60AA
:101C100002E0BB68013BBB60BB68002BF9D107E069
:101C20007B689B6A43F020027B689A620123FB7306
:101C30007B68002283F82420FB7B18461437BD46BE
:101C400080BC7047002401400000002083DE1B435D
:101C500080B584B000AF78600023FB600023BB60D8
:101C60007B681B689B6803F00103012B40D07B68F5
:101C70001B689A687B681B6842F001029A601F4BE0
:101C80001B681F4AA2FB03239B0CBB6002E0BB68DE
:101C9000013BBB60BB68002BF9D1FFF719FCF86072
:101CA0001FE0FFF715FC0246FB68D31A022B18D978
:101CB0007B681B689B6803F00103012B11D07B68D4
:101CC0009B6A43F010027B689A627B68DB6A43F090
:101CD00001027B68DA627B68002283F824200123FA
:101CE00007E07B681B689B6803F00103012BD8D1D8
:101CF000002318461037BD4680BD00BF00000020FD
:101D000083DE1B4380B584B000AF78600023FB60A6
:101D10007B681B689B6803F00103012B2ED17B6855
:101D20001B689A687B681B6822F001029A60FFF7C3
:101D3000CFFBF8601BE0FFF7CBFB0246FB68D31A32
:101D4000022B14D97B681B689B6803F00103012BED
:101D50000DD17B689B6A43F010027B689A627B68B6
:101D6000DB6A43F001027B68DA62012307E07B68EB
:101D70001B689B6803F00103012BDCD0002318468D
:101D80001037BD4680BD80B584B000AF78607B68F9
:101D90005B6AFB60FB689B6A03F05003002B27D152
:101DA000FB689B6A43F40072FB689A62FB681B68DD
:101DB0009B6803F46023B3F5602F15D1FB681B7B90
:101DC000002B11D1FB689B6A23F48072FB689A6236
:101DD000FB689B6A03F48053002B05D1FB689B6A68
:101DE00043F00102FB689A62F868FFF714FE04E012
:101DF000FB681B6A1B6B7868984700BF1037BD46AD
:101E000080BD80B584B000AF78607B685B6AFB60A2
:101E1000F868FFF709FE00BF1037BD4680BD80B5EA
:101E200084B000AF78607B685B6AFB60FB689B6A8C
:101E300043F04002FB689A62FB68DB6A43F00402ED
:101E4000FB68DA62F868FFF701FE00BF1037BD4695
:101E500080BD000090B587B000AF78600023FB75AF
:101E60000023FB607B6893F82430012B01D102230F
:101E700097E07B68012283F824207868FFF742FF0F
:101E80000346FB757868FFF7E3FE0346FB75FB7DB1
:101E9000002B40F081807B689B6A23F4885323F0F9
:101EA000020343F002027B689A62404B1C680220E6
:101EB00001F016FA0346B4FBF3F35B00FB6002E0AB
:101EC000FB68013BFB60FB68002BF9D17B681B685A
:101ED0009A687B681B6842F008029A60FFF7F8FA7C
:101EE00038611BE0FFF7F4FA02463B69D31A0A2B6C
:101EF00014D97B681B689B6803F00803002B0DD086
:101F00007B689B6A23F0120343F010027B689A629D
:101F10007B68002283F82420012342E07B681B6851
:101F20009B6803F00803002BDCD17B681B689A6870
:101F30007B681B6842F004029A60FFF7C9FA3861B7
:101F40001BE0FFF7C5FA02463B69D31A0A2B14D9E6
:101F50007B681B689B6803F00403002B0DD07B6833
:101F60009B6A23F0120343F010027B689A627B683D
:101F7000002283F82420012313E07B681B689B6800
:101F800003F00403002BDCD17B689B6A23F003037E
:101F900043F001027B689A627B68002283F8242068
:101FA000FB7D18461C37BD4690BD00BF00000020D9
:101FB00080B483B000AF786000BF0C37BD4680BCF2
:101FC0007047000080B485B000AF78607B6803F094
:101FD0000703FB600C4BDB68BB60BA684FF6FF037E
:101FE0001340BB60FB681A02BB68134343F0BF6336
:101FF00043F40033BB60044ABB68D36000BF1437AE
:10200000BD4680BC704700BF00ED00E080B400AF6B
:10201000044BDB681B0A03F007031846BD4680BC6F
:10202000704700BF00ED00E080B483B000AF03460E
:10203000FB7197F90730002B0BDBFB7903F01F02D4
:10204000064997F907305B09012000FA02F241F8CE
:10205000232000BF0C37BD4680BC704700E100E084
:1020600080B483B000AF03463960FB7197F9073045
:10207000002B0ADB3B68DAB20C4997F907301201F2
:10208000D2B20B4483F800230AE03B68DAB2084975
:10209000FB7903F00F03043B1201D2B20B441A7612
:1020A00000BF0C37BD4680BC704700BF00E100E0B8
:1020B00000ED00E080B489B000AFF860B9607A60EC
:1020C000FB6803F00703FB61FB69C3F10703042B03
:1020D00028BF0423BB61FB690433062B02D9FB69CB
:1020E000033B00E000237B614FF0FF32BB6902FA43
:1020F00003F3DA43BB681A407B699A404FF0FF3123
:102100007B6901FA03F3D9437B680B4013431846FC
:102110002437BD4680BC704780B582B000AF786080
:102120007B68013BB3F1807F01D301230FE00A4AB2
:102130007B68013B53600F214FF0FF30FFF790FFAA
:10214000054B00229A60044B07221A6000231846B0
:102150000837BD4680BD00BF10E000E080B582B00A
:1021600000AF78607868FFF72DFF00BF0837BD46E5
:1021700080BD80B586B000AF0346B9607A60FB735E
:1021800000237B61FFF742FF78617A68B96878695C
:10219000FFF790FF024697F90F3011461846FFF7F8
:1021A0005FFF00BF1837BD4680BD80B582B000AF6D
:1021B0000346FB7197F907301846FFF735FF00BF5C
:1021C0000837BD4680BD80B582B000AF78607868C2
:1021D000FFF7A2FF034618460837BD4680BD000042
:1021E00080B485B000AF78600023FB607B68002B73
:1021F00001D1012343E07B681B681A46224B13443C
:10220000224AA2FB03231B099A007B681A647B689D
:102210001F4ADA637B68022283F821207B681B68EF
:102220001B68FB60FB6823F47F5323F03003FB60E3
:102230007B685A687B689B681A437B68DB681A4333
:102240007B681B691A437B685B691A437B689B69DF
:102250001A437B68DB691343FA681343FB607B68AE
:102260001B68FA681A607B6800229A637B68012207
:1022700083F821207B68002283F820200023184661
:102280001437BD4680BC7047F8FFFDBFCDCCCCCC29
:102290000000024080B586B000AFF860B9607A6097
:1022A0003B600023FB75FB6893F82030012B01D1C4
:1022B00002234BE0FB68012283F82020FB6893F89F
:1022C0002130DBB2012B3AD1FB68022283F82120B6
:1022D000FB6800229A63FB681B681A68FB681B682E
:1022E00022F001021A603B687A68B968F86800F069
:1022F00037F9FB68DB6A002B08D0FB681B681A689B
:10230000FB681B6842F00E021A600FE0FB681B6856
:102310001A68FB681B6822F004021A60FB681B68DD
:102320001A68FB681B6842F00A021A60FB681B68A7
:102330001A68FB681B6842F001021A6005E0FB683E
:10234000002283F820200223FB75FB7D18461837F6
:10235000BD4680BD80B584B000AF78607B68DB6B24
:102360001B68FB607B681B681B68BB607B681B6C21
:1023700004229A40FB681340002B4FD0BB6803F047
:102380000403002B4AD07B681B681B6803F0200302
:10239000002B07D17B681B681A687B681B6822F0DA
:1023A00004021A607B681B68664A934229D07B68E6
:1023B0001B68654A934222D07B681B68634A93423C
:1023C0001AD07B681B68624A934212D07B681B68F4
:1023D000604A93420AD07B681B685F4A934202D1ED
:1023E0004FF480030EE04FF080630BE04FF4802346
:1023F00008E04FF4804305E04FF4806302E040239F
:1024000000E00423554A53607B68DB6A002B00F030
:1024100094807B68DB6A786898478EE07B681B6CE9
:1024200002229A40FB681340002B56D0BB6803F091
:102430000203002B51D07B681B681B6803F020034C
:10244000002B0BD17B681B681A687B681B6822F025
:102450000A021A607B68012283F821207B681B68CE
:10246000384A934229D07B681B68374A934222D06E
:102470007B681B68354A93421AD07B681B68344AD4
:10248000934212D07B681B68324A93420AD07B6821
:102490001B68314A934202D14FF400130EE04FF013
:1024A00000730BE04FF4003308E04FF4005305E0F5
:1024B0004FF4007302E0202300E00223274A536018
:1024C0007B68002283F820207B689B6A002B34D035
:1024D0007B689B6A786898472FE07B681B6C0822B2
:1024E0009A40FB681340002B28D0BB6803F0080318
:1024F000002B23D07B681B681A687B681B6822F05E
:102500000E021A607B681A6C7B68DB6B012101FA92
:1025100002F25A607B6801229A637B68012283F889
:1025200021207B68002283F820207B681B6B002B16
:1025300004D07B681B6B7868984700BF00BF1037DA
:10254000BD4680BD080002401C0002403000024031
:1025500044000240580002406C000240000002406B
:1025600080B485B000AFF860B9607A603B60FB680A
:102570001A6CFB68DB6B012101FA02F25A60FB68FE
:102580001B683A685A60FB685B68102B08D1FB68CF
:102590001B687A689A60FB681B68BA68DA6007E0B3
:1025A000FB681B68BA689A60FB681B687A68DA6027
:1025B00000BF1437BD4680BC7047000080B48BB0AC
:1025C00000AF7860396000237B6200233B6269E1E1
:1025D00001227B6A02FA03F3FB613B681B68FA691C
:1025E0001340BB61BA69FB699A4240F058813B686D
:1025F0005B689A4A93425ED0984A934275D8984A4B
:10260000934258D0964A93426FD8964A934252D0FA
:10261000944A934269D8944A93424CD0924A934246
:1026200063D8924A934246D0904A93425DD8122B87
:102630002AD8122B59D801A252F823F0B726000845
:1026400091260008A3260008E5260008EB260008CE
:10265000EB260008EB260008EB260008EB26000816
:10266000EB260008EB260008EB260008EB26000806
:10267000EB260008EB260008EB260008EB260008F6
:1026800099260008AD260008794A934213D02CE021
:102690003B68DB683B6229E03B68DB6804333B62F4
:1026A00024E03B68DB6808333B621FE03B68DB6883
:1026B0000C333B621AE03B689B68002B02D1042379
:1026C0003B6213E03B689B68012B05D108233B620A
:1026D0007B68FA691A6109E008233B627B68FA6942
:1026E0005A6103E000233B6200E000BFBB69FF2B9F
:1026F00001D87B6801E07B6804337B61BB69FF2BF9
:1027000002D87B6A9B0002E07B6A083B9B003B612E
:102710007B691A680F213B6901FA03F3DB431A4016
:10272000396A3B6901FA03F31A437B691A603B6813
:102730005B6803F08053002B00F0B1804D4B9B6928
:102740004C4A43F0010393614A4B9B6903F0010338
:10275000BB60BB68484A7B6A9B08023352F823304F
:10276000FB607B6A03F003039B000F2202FA03F372
:10277000DB43FA681340FB607B68404A934213D006
:102780007B683F4A93420DD07B683E4A934207D014
:102790007B683D4A934201D1032306E0042304E011
:1027A000022302E0012300E000237A6A02F0030220
:1027B00092009340FA681343FB602F497B6A9B08A1
:1027C0000233FA6841F823203B685B6803F4801306
:1027D000002B06D02D4B9A682C49BB6913438B60A4
:1027E00006E02A4B9A68BB69DB43284913408B609B
:1027F0003B685B6803F40013002B06D0234BDA68B8
:102800002249BB691343CB6006E0204BDA68BB6901
:10281000DB431E491340CB603B685B6803F4003325
:10282000002B06D0194B5A681849BB6913434B60FB
:1028300006E0164B5A68BB69DB43144913404B60F2
:102840003B685B6803F48033002B21D00F4B1A6880
:102850000E49BB6913430B6021E000BF000032103A
:1028600000003110000022100000211000001210A2
:10287000000011100010024000000140000801405B
:10288000000C014000100140001401400004014010
:102890000B4B1A68BB69DB43094913400B607B6A29
:1028A00001337B623B681A687B6A22FA03F3002BD0
:1028B0007FF48EAE00BF00BF2C37BD4680BC704792
:1028C0000004014080B485B000AF78600B467B8087
:1028D0007B689A687B881340002B02D00123FB732E
:1028E00001E00023FB73FB7B18461437BD4680BC18
:1028F000704780B483B000AF78600B467B8013468E
:102900007B707B78002B03D07A887B681A6103E0A8
:102910007B881A047B681A6100BF0C37BD4680BCF7
:10292000704780B485B000AF78600B467B807B68D1
:10293000DB68FB607A88FB6813401A04FB68D943A4
:102940007B880B401A437B681A6100BF1437BD4671
:1029500080BC704780B586B000AF78607B68002B84
:1029600001D1012372E27B681B6803F00103002B95
:1029700000F08780924B5B6803F00C03042B0CD0B3
:102980008F4B5B6803F00C03082B12D18C4B5B68F8
:1029900003F48033B3F5803F0BD1894B1B6803F4FC
:1029A0000033002B6CD07B685B68002B68D101235F
:1029B0004CE27B685B68B3F5803F06D1804B1B68B7
:1029C0007F4A43F4803313602EE07B685B68002B02
:1029D0000CD17B4B1B687A4A23F480331360784B0D
:1029E0001B68774A23F4802313601DE07B685B68D3
:1029F000B3F5A02F0CD1724B1B68714A43F48023AE
:102A000013606F4B1B686E4A43F4803313600BE016
:102A10006B4B1B686A4A23F480331360684B1B6856
:102A2000674A23F4802313607B685B68002B13D014
:102A3000FEF74EFD386108E0FEF74AFD02463B69AD
:102A4000D31A642B01D9032300E25D4B1B6803F406
:102A50000033002BF0D014E0FEF73AFD386108E0B7
:102A6000FEF736FD02463B69D31A642B01D90323D6
:102A7000ECE1534B1B6803F40033002BF0D100E072
:102A800000BF7B681B6803F00203002B63D04C4B34
:102A90005B6803F00C03002B0BD0494B5B6803F021
:102AA0000C03082B1CD1464B5B6803F48033002BCE
:102AB00016D1434B1B6803F00203002B05D07B6843
:102AC0001B69012B01D00123C0E13D4B1B6823F0A2
:102AD000F8027B685B69DB00394913430B603AE01D
:102AE0007B681B69002B20D0364B01221A60FEF751
:102AF000EFFC386108E0FEF7EBFC02463B69D31AB5
:102B0000022B01D90323A1E12D4B1B6803F0020323
:102B1000002BF0D02A4B1B6823F0F8027B685B691E
:102B2000DB00274913430B6015E0264B00221A6097
:102B3000FEF7CEFC386108E0FEF7CAFC02463B69AE
:102B4000D31A022B01D9032380E11D4B1B6803F02C
:102B50000203002BF0D17B681B6803F00803002BF5
:102B60003AD07B689B69002B19D0174B01221A6061
:102B7000FEF7AEFC386108E0FEF7AAFC02463B69AE
:102B8000D31A022B01D9032360E10D4B5B6A03F0DA
:102B90000203002BF0D0012000F0CEFA1CE00A4B1B
:102BA00000221A60FEF794FC38610FE0FEF790FCFB
:102BB00002463B69D31A022B08D9032346E100BF22
:102BC000001002400000424280044242924B5B6A85
:102BD00003F00203002BE9D17B681B6803F00403B8
:102BE000002B00F0A6800023FB758B4BDB6903F004
:102BF0008053002B0DD1884BDB69874A43F080530B
:102C0000D361854BDB6903F08053BB60BB68012354
:102C1000FB75824B1B6803F48073002B18D17F4B2C
:102C20001B687E4A43F480731360FEF751FC3861E1
:102C300008E0FEF74DFC02463B69D31A642B01D92C
:102C4000032303E1754B1B6803F48073002BF0D062
:102C50007B68DB68012B06D16F4B1B6A6E4A43F021
:102C6000010313622DE07B68DB68002B0CD16A4BFB
:102C70001B6A694A23F001031362674B1B6A664AA9
:102C800023F0040313621CE07B68DB68052B0CD186
:102C9000614B1B6A604A43F0040313625E4B1B6A7C
:102CA0005D4A43F0010313620BE05B4B1B6A5A4A17
:102CB00023F001031362584B1B6A574A23F00403A5
:102CC00013627B68DB68002B15D0FEF701FC3861CE
:102CD0000AE0FEF7FDFB02463B69D31A41F2883257
:102CE000934201D90323B1E04B4B1B6A03F002036B
:102CF000002BEED014E0FEF7EBFB38610AE0FEF7A4
:102D0000E7FB02463B69D31A41F28832934201D96C
:102D100003239BE0404B1B6A03F00203002BEED120
:102D2000FB7D012B05D13C4BDB693B4A23F08053F3
:102D3000D3617B68DB69002B00F08780364B5B68D2
:102D400003F00C03082B61D07B68DB69022B46D1B2
:102D5000334B00221A60FEF7BBFB386108E0FEF738
:102D6000B7FB02463B69D31A022B01D903236DE05E
:102D7000294B1B6803F00073002BF0D17B681B6AA2
:102D8000B3F5803F08D1244B5B6823F400327B68A5
:102D90009B68214913434B601F4B5B6823F47412FB
:102DA0007B68196A7B685B6A0B431B4913434B6062
:102DB0001B4B01221A60FEF78BFB386108E0FEF71F
:102DC00087FB02463B69D31A022B01D903233DE05E
:102DD000114B1B6803F00073002BF0D035E0104B53
:102DE00000221A60FEF774FB386108E0FEF770FB02
:102DF00002463B69D31A022B01D9032326E0064B76
:102E00001B6803F00073002BF0D11EE07B68DB69C8
:102E1000012B07D1012319E000100240007000408F
:102E2000600042420B4B5B68FB60FB6803F480323E
:102E30007B681B6A9A4206D1FB6803F470127B68B8
:102E40005B6A9A4201D0012300E00023184618373C
:102E5000BD4680BD0010024080B584B000AF7860F0
:102E600039607B68002B01D10123D0E06A4B1B68DD
:102E700003F007033A689A4210D9674B1B6823F0A6
:102E8000070265493B6813430B60634B1B6803F003
:102E900007033A689A4201D00123B8E07B681B68B7
:102EA00003F00203002B20D07B681B6803F00403AF
:102EB000002B05D0594B5B68584A43F4E0635360DC
:102EC0007B681B6803F00803002B05D0534B5B683D
:102ED000524A43F460535360504B5B6823F0F00256
:102EE0007B689B684D4913434B607B681B6803F00C
:102EF0000103002B40D07B685B68012B07D1474B57
:102F00001B6803F40033002B15D101237FE07B689D
:102F10005B68022B07D1414B1B6803F00073002B49
:102F200009D1012373E03D4B1B6803F00203002B22
:102F300001D101236BE0394B5B6823F003027B680E
:102F40005B68364913434B60FEF7C2FAF8600AE04B
:102F5000FEF7BEFA0246FB68D31A41F2883293426A
:102F600001D9032353E02D4B5B6803F00C027B680F
:102F70005B689B009A42EBD1274B1B6803F0070369
:102F80003A689A4210D2244B1B6823F00702224968
:102F90003B6813430B60204B1B6803F007033A6840
:102FA0009A4201D0012332E07B681B6803F00403DE
:102FB000002B08D0194B5B6823F4E0627B68DB6868
:102FC000164913434B607B681B6803F00803002B12
:102FD00009D0124B5B6823F460527B681B69DB00ED
:102FE0000E4913434B6000F021F802460B4B5B681F
:102FF0001B0903F00F030A49CB5C22FA03F3094AC9
:103000001360094B1B681846FEF720FA0023184688
:103010001037BD4680BD00BF0020024000100240B6
:10302000C47A0008000000200400002080B487B0AB
:1030300000AF0023FB600023BB6000237B61002303
:103040007B6000233B611E4B5B68FB60FB6803F009
:103050000C03042B02D0082B03D027E0194B3B6153
:1030600027E0FB689B0C03F00F03174AD35C7B60DF
:10307000FB6803F48033002B10D0114B5B685B0CB2
:1030800003F00103114AD35CBB607B680D4A03FB6C
:1030900002F2BB68B2FBF3F37B6104E07B680C4A8D
:1030A00002FB03F37B617B693B6102E0054B3B6103
:1030B00000BF3B6918461C37BD4680BC704700BF47
:1030C0000010024000127A00DC7A0008EC7A000856
:1030D00000093D0080B400AF024B1B681846BD4696
:1030E00080BC70470000002080B500AFFFF7F2FF02
:1030F0000246054B5B681B0A03F007030349CB5CE0
:1031000022FA03F3184680BD00100240D47A00086A
:1031100080B500AFFFF7DEFF0246054B5B68DB0AB8
:1031200003F007030349CB5C22FA03F3184680BD82
:1031300000100240D47A000880B485B000AF7860F7
:103140000A4B1B680A4AA2FB03235B0A7A6802FB4C
:1031500003F3FB6000BFFB685A1EFA60002BF9D135
:1031600000BF00BF1437BD4680BC70470000002080
:10317000D34D621080B586B000AF786000233B610C
:103180000023FB607B681B6803F00103002B7DD0EC
:103190000023FB754F4BDB6903F08053002B0DD1EF
:1031A0004C4BDB694B4A43F08053D361494BDB699D
:1031B00003F08053BB60BB680123FB75464B1B6863
:1031C00003F48073002B18D1434B1B68424A43F42D
:1031D00080731360FEF77CF9386108E0FEF778F938
:1031E00002463B69D31A642B01D903236DE03A4BA5
:1031F0001B6803F48073002BF0D0364B1B6A03F47A
:103200004073FB60FB68002B2ED07B685B6803F487
:103210004073FA689A4227D02E4B1B6A23F44073FE
:10322000FB602E4B01221A602C4B00221A60294AA7
:10323000FB681362FB6803F00103002B14D0FEF758
:1032400047F938610AE0FEF743F902463B69D31AB1
:1032500041F28832934201D9032336E01D4B1B6AA9
:1032600003F00203002BEED01A4B1B6A23F44072CA
:103270007B685B68174913430B62FB7D012B05D10B
:10328000144BDB69134A23F08053D3617B681B68BE
:1032900003F00203002B08D00E4B5B6823F440427E
:1032A0007B689B680B4913434B607B681B6803F08A
:1032B0001003002B08D0074B5B6823F480027B6867
:1032C000DB68044913434B60002318461837BD469A
:1032D00080BD00BF00100240007000404004424228
:1032E00080B588B000AF786000237B610023FB616C
:1032F00000233B610023FB600023BB617B68102B34
:103300000AD07B68102B00F28A807B68012B45D0A5
:103310007B68022B75D082E0464B5B68FB60454BB7
:103320001B6803F08073002B7BD0FB689B0C03F0C1
:103330000F03414AD35C3B61FB6803F48033002BED
:1033400015D03C4B5B685B0C03F001033B4AD35C3C
:103350007B61FB6803F48033002B0DD0384A7B6916
:10336000B2FBF3F23B6902FB03F3FB6104E03B6950
:10337000344A02FB03F3FB612E4B5B6803F48003CA
:10338000B3F5800F02D1FB69BB614AE0FB695B00CA
:103390002D4AA2FB03235B08BB6142E0254B1B6A5D
:1033A000FB60FB6803F44073B3F5807F08D1FB68D2
:1033B00003F00203002B03D04FF40043BB611FE076
:1033C000FB6803F44073B3F5007F09D1194B5B6AC6
:1033D00003F00203002B03D049F64043BB610FE02A
:1033E000FB6803F44073B3F5407F1CD1114B1B689D
:1033F00003F40033002B16D04FF22443BB6112E0DC
:1034000011E0FFF785FE02460A4B5B689B0B03F059
:10341000030301335B00B2FBF3F3BB6104E000BFC5
:1034200002E000BF00E000BFBB6918462037BD4680
:1034300080BD00BF00100240F07A0008007B000849
:1034400000127A0000093D00ABAAAAAA80B582B09A
:1034500000AF78607B68002B01D1012341E07B68DD
:1034600093F83D30DBB2002B06D17B68002283F855
:103470003C207868FDF7F8FE7B68022283F83D2047
:103480007B681A687B6804331946104600F08AFA94
:103490007B68012283F846207B68012283F83E2066
:1034A0007B68012283F83F207B68012283F840205B
:1034B0007B68012283F841207B68012283F8422047
:1034C0007B68012283F843207B68012283F8442033
:1034D0007B68012283F845207B68012283F83D2028
:1034E000002318460837BD4680BD000080B485B073
:1034F00000AF78607B6893F83D30DBB2012B01D0E0
:1035000001233AE07B68022283F83D207B681B6838
:10351000DA687B681B6842F00102DA607B681B682E
:10352000184A93420ED07B681B68B3F1804F09D0D4
:103530007B681B68144A934204D07B681B68134A5B
:10354000934211D17B681B689B6803F00703FB6003
:10355000FB68062B10D07B681B681A687B681B68A9
:1035600042F001021A6007E07B681B681A687B68FA
:103570001B6842F001021A60002318461437BD464A
:1035800080BC7047002C014000040040000800404F
:1035900080B483B000AF78607B681B68DA687B68B2
:1035A0001B6822F00102DA607B681B681A6A41F22C
:1035B00011131340002B0FD17B681B681A6A40F26D
:1035C00044431340002B07D17B681B681A687B6853
:1035D0001B6822F001021A607B68012283F83D20FB
:1035E000002318460C37BD4680BC704780B584B0B8
:1035F00000AF78607B681B68DB68FB607B681B68DA
:103600001B69BB60BB6803F00203002B20D0FB6882
:1036100003F00203002B1BD07B681B686FF00202D3
:103620001A617B6801221A777B681B689B6903F02B
:103630000303002B03D0786800F098F905E0786860
:1036400000F08BF9786800F09AF97B6800221A770D
:10365000BB6803F00403002B20D0FB6803F00403D5
:10366000002B1BD07B681B686FF004021A617B681B
:1036700002221A777B681B689B6903F44073002B56
:1036800003D0786800F072F905E0786800F065F919
:10369000786800F074F97B6800221A77BB6803F041
:1036A0000803002B20D0FB6803F00803002B1BD07D
:1036B0007B681B686FF008021A617B6804221A7726
:1036C0007B681B68DB6903F00303002B03D0786879
:1036D00000F04CF905E0786800F03FF9786800F0F8
:1036E0004EF97B6800221A77BB6803F01003002BA9
:1036F00020D0FB6803F01003002B1BD07B681B68F5
:103700006FF010021A617B6808221A777B681B68C9
:10371000DB6903F44073002B03D0786800F026F9CE
:1037200005E0786800F019F9786800F028F97B68FE
:1037300000221A77BB6803F00103002B0CD0FB6852
:1037400003F00103002B07D07B681B686FF00102B8
:103750001A617868FDF722F9BB6803F08003002B3B
:103760000CD0FB6803F08003002B07D07B681B683C
:103770006FF080021A61786800F07FFABB6803F08E
:103780004003002B0CD0FB6803F04003002B07D054
:103790007B681B686FF040021A61786800F0F8F8E7
:1037A000BB6803F02003002B0CD0FB6803F0200360
:1037B000002B07D07B681B686FF020021A617868C5
:1037C00000F052FA00BF1037BD4680BD80B584B00E
:1037D00000AF786039600023FB737B6893F83C305E
:1037E000012B01D10223B4E07B68012283F83C2045
:1037F0007B68022283F83D207B681B689B68BB6066
:10380000BB6823F07703BB60BB6823F47F43BB60D6
:103810007B681B68BA689A603B681B68B3F5005FF9
:103820003ED0B3F5005F00F28780B3F5805F00F013
:103830008680B3F5805F7FD8702B1AD0702B7BD831
:10384000602B50D0602B77D8502B3CD0502B73D8A6
:10385000402B58D0402B6FD8302B64D0302B6BD8F6
:10386000202B60D0202B67D8002B5CD0102B5AD097
:1038700062E07B6818683B6899683B685A683B68F7
:10388000DB6800F074F97B681B689B68BB60BB68F1
:1038900043F07703BB607B681B68BA689A604FE0AF
:1038A0007B6818683B6899683B685A683B68DB68C6
:1038B00000F05DF97B681B689A687B681B6842F4BE
:1038C00080429A603CE07B6818683B6859683B68B6
:1038D000DB681A4600F0D4F87B681B685021184654
:1038E00000F02BF92CE07B6818683B6859683B684E
:1038F000DB681A4600F0F2F87B681B686021184606
:1039000000F01BF91CE07B6818683B6859683B684D
:10391000DB681A4600F0B4F87B681B684021184643
:1039200000F00BF90CE07B681A683B681B681946CD
:10393000104600F002F903E00123FB7300E000BF32
:103940007B68012283F83D207B68002283F83C20BD
:10395000FB7B18461037BD4680BD80B483B000AFF6
:10396000786000BF0C37BD4680BC704780B483B020
:1039700000AF786000BF0C37BD4680BC704780B494
:1039800083B000AF786000BF0C37BD4680BC704785
:1039900080B483B000AF786000BF0C37BD4680BCF8
:1039A0007047000080B485B000AF786039607B68F4
:1039B0001B68FB607B682F4A93420BD07B68B3F196
:1039C000804F07D07B682C4A934203D07B682B4AF8
:1039D000934208D1FB6823F07003FB603B685B688F
:1039E000FA681343FB607B68224A93420BD07B68E2
:1039F000B3F1804F07D07B681F4A934203D07B68A6
:103A00001E4A934208D1FB6823F44073FB603B6875
:103A1000DB68FA681343FB60FB6823F080023B68B5
:103A20005B691343FB607B68FA681A603B689A68BD
:103A30007B68DA623B681A687B689A627B680D4A29
:103A4000934203D13B681A697B681A637B68012241
:103A50005A617B681B6903F00103002B05D07B686A
:103A60001B6923F001027B681A6100BF1437BD4651
:103A700080BC7047002C014000040040000800405A
:103A800080B487B000AFF860B9607A60FB681B6AE9
:103A90007B61FB681B6A23F00102FB681A62FB680A
:103AA0009B693B613B6923F0F0033B617B681B0131
:103AB0003A6913433B617B6923F00A037B617A69AE
:103AC000BB6813437B61FB683A699A61FB687A695A
:103AD0001A6200BF1C37BD4680BC704780B487B0F7
:103AE00000AFF860B9607A60FB681B6A7B61FB68B5
:103AF0001B6A23F01002FB681A62FB689B693B613A
:103B00003B6923F470433B617B681B033A691343B1
:103B10003B617B6923F0A0037B61BB681B017A6971
:103B200013437B61FB683A699A61FB687A691A62A0
:103B300000BF1C37BD4680BC704780B485B000AF65
:103B4000786039607B689B68FB60FB6823F07003DA
:103B5000FB603A68FB68134343F00703FB607B6834
:103B6000FA689A6000BF1437BD4680BC704780B4C5
:103B700087B000AFF860B9607A603B60FB689B6813
:103B80007B617B6923F47F437B613B681A027B681E
:103B90001A43BB6813437A6913437B61FB687A69F4
:103BA0009A6000BF1C37BD4680BC704780B485B0AA
:103BB00000AF786039607B6893F83C30012B01D10D
:103BC000022346E07B68012283F83C207B680222C6
:103BD00083F83D207B681B685B68FB607B681B6823
:103BE0009B68BB60FB6823F07003FB603B681B684D
:103BF000FA681343FB607B681B68FA685A607B684D
:103C00001B68164A93420ED07B681B68B3F1804F45
:103C100009D07B681B68124A934204D07B681B68FA
:103C2000104A93420CD1BB6823F08003BB603B6811
:103C30005B68BA681343BB607B681B68BA689A60AC
:103C40007B68012283F83D207B68002283F83C20BA
:103C5000002318461437BD4680BC7047002C014035
:103C6000000400400008004080B483B000AF7860DA
:103C700000BF0C37BD4680BC704780B483B000AF36
:103C8000786000BF0C37BD4680BC704780B582B0FD
:103C900000AF78607B68002B01D1012342E07B6894
:103CA00093F84130DBB2002B06D17B68002283F809
:103CB00040207868FDF742FB7B68242283F841208E
:103CC0007B681B68DA687B681B6822F40052DA6044
:103CD000786800F071F97B681B681A697B681B685B
:103CE00022F490421A617B681B685A697B681B68E2
:103CF00022F02A025A617B681B68DA687B681B68BD
:103D000042F40052DA607B6800225A647B68202209
:103D100083F841207B68202283F842207B680022C0
:103D20005A63002318460837BD4680BD80B58AB067
:103D300002AFF860B9603B601346FB8000237B61F3
:103D4000FB6893F84130DBB2202B75D1BB68002BA8
:103D500002D0FB88002B01D101236EE0FB6800221A
:103D60005A64FB68212283F84120FDF7B1FB78619A
:103D7000FB68FA889A84FB68FA88DA84FB689B6897
:103D8000B3F5805F08D1FB681B69002B04D10023C9
:103D9000FB61BB68BB6103E0BB68FB610023BB61E7
:103DA0002EE03B6800937B6900228021F86800F0D8
:103DB00048F80346002B05D0FB68202283F84120F9
:103DC00003233AE0FB69002B0BD1BB691B881A4621
:103DD000FB681B68C2F308025A60BB690233BB610F
:103DE00007E0FB691A78FB681B685A60FB690133BE
:103DF000FB61FB68DB8C9BB2013B9AB2FB68DA8407
:103E0000FB68DB8C9BB2002BCBD13B6800937B69BA
:103E100000224021F86800F014F80346002B05D07A
:103E2000FB68202283F84120032306E0FB68202260
:103E300083F84120002300E0022318462037BD46C6
:103E400080BD80B586B000AFF860B9603B601346B6
:103E5000FB713BE03B6AB3F1FF3F37D0FDF738FB26
:103E600002463B68D31A3A6A9A4202D33B6A002B55
:103E700001D103233AE0FB681B68DB6803F004030D
:103E8000002B23D0BB68802B20D0BB68402B1DD0DB
:103E9000FB681B681B6803F00803082B16D100237E
:103EA0007B61FB681B681B687B61FB681B685B6848
:103EB0007B617B69F86800F01DF8FB6808225A6492
:103EC000FB68002283F8402001230FE0FB681B6899
:103ED0001A68BB681340BA689A420CBF01230023DA
:103EE000DBB21A46FB799A42B4D000231846183741
:103EF000BD4680BD80B495B000AF78607B681B681C
:103F00000C337B637B6B53E8003F3B633B6B23F4D9
:103F10009073FB647B681B680C33FA6C3A64FB6338
:103F2000F96B3A6C41E80023BB63BB6B002BE5D116
:103F30007B681B6814333B623B6A53E8003FFB61BC
:103F4000FB6923F00103BB647B681B681433BA6C04
:103F5000FA62BB62B96AFA6A41E800237B627B6A53
:103F6000002BE5D17B681B6B012B19D17B681B688B
:103F70000C33FB60FB6853E8003FBB60BB6823F079
:103F800010037B647B681B680C337A6CBA617B61BD
:103F90007969BA6941E800233B613B69002BE5D1AF
:103FA0007B68202283F842207B6800221A6300BFCE
:103FB0005437BD4680BC704780B584B000AF786090
:103FC0007B681B681B6923F440517B68DA687B6857
:103FD0001B680A431A617B689A687B681B691A43ED
:103FE0007B685B691343BB607B681B68DB6823F4F9
:103FF000B05323F00C037A681268B9680B43D3609E
:104000007B681B685B6923F440717B689A697B68F5
:104010001B680A435A617B681B682C4A934203D190
:10402000FFF776F8F86002E0FFF75EF8F860FA68EC
:1040300013469B0013449A001A447B685B689B00FC
:10404000B2FBF3F3224AA2FB03235B091901FA68CE
:1040500013469B0013449A001A447B685B689B00DC
:10406000B2FBF3F21A4BA3FB02035B09642000FBD3
:1040700003F3D31A1B013233154AA2FB03235B0956
:1040800003F0F0031944FA6813469B0013449A00A6
:104090001A447B685B689B00B2FBF3F20C4BA3FBFA
:1040A00002035B09642000FB03F3D31A1B013233C4
:1040B000074AA2FB03235B0903F00F027B681B681E
:1040C0000A449A6000BF1037BD4680BD00380140E9
:1040D0001F85EB51014B1868704700BF0C00002092
:1040E00070B500260C4D0D4C641BA410A64209D1DE
:1040F00003F018FF00260A4D0A4C641BA410A642C8
:1041000005D170BD55F8043B98470136EEE755F8E8
:10411000043B98470136F2E7000000000000000071
:10412000000000000000000003460244934200D15A
:10413000704703F8011BF9E7002B2DE9F0471F46F4
:10414000BBBF03F100431F4600232D2388B0144654
:10415000129A109D1370149BDDF84CA023F02008D8
:10416000B8F1460F05D0B8F1450F00D10135022353
:1041700000E0032307AA049206AACDE902A2CDE932
:10418000003522463B4600F0EBFCB8F1470F0646EF
:1041900002D1119BDB0722D5B8F1460F06EB0509CA
:1041A00010D13378302B0AD1002200232046394623
:1041B00003F0C6FA18B9C5F10105CAF80050DAF8DB
:1041C00000309944002200232046394603F0B8FA13
:1041D00008B1CDF81C903022079B4B4507D33046E1
:1041E000079B159A9B1B136008B0BDE8F087591C0C
:1041F00007911A70F0E70346F7B5002903F8022B80
:10420000B6BF2D222B224942092942702BDD0DF128
:104210000704A4460A2791FBF7F60A46A64607FBC1
:104220001615632A05F13005314604F1FF340EF806
:10423000015CF0DC3031AEF1020504F8011C2946C6
:10424000441C61450AD30DF10902A2EB0E0265453B
:1042500088BF00221344181A03B0F0BD11F8012BD7
:1042600004F8012FEDE7302330318370C170031D56
:10427000F1E700002DE9F04F91B00C46DDF86880C1
:1042800016461F46054601F059FA03681846099379
:1042900000F0D2FB00230E93D8F800300A900733C9
:1042A00023F0070303F1080294F81890D4F800B043
:1042B000C8F80020D3E90023C4E91223D4E9128A04
:1042C0002AF000430B934FF0FF3240469C4B0B9972
:1042D00003F068FA70BB4FF0FF324046984B0B99E1
:1042E00003F042FA30BB002200234046514603F05F
:1042F00031FA10B12D2384F84330924B9248B9F132
:10430000470F94BF9846804603234FF0000A23616D
:104310002BF00403236033462146284600970FAA5A
:1043200000F0D4F9013040F090804FF0FF3011B030
:10433000BDE8F08F424653464046514603F032FAFC
:1043400048B1BAF1000FB8BF2D238048B8BF84F838
:1043500043307F4BD3E7636809F0DF015A1C42D139
:1043600006236360002206920EAACDE904920DAAEC
:104370004BF4806303920DF13302CDE901322360E7
:10438000636842460093284653460B91FFF7D4FEDC
:104390000B99804647290D9908D1C81C02DB636838
:1043A000994240DDA9F102095FFA89F9B9F1650F77
:1043B0001FD84A46013904F150000D91FFF71BFF49
:1043C0000E9A82461318012A236102DC2268D20762
:1043D00001D5013323619DF83330002B9BD02D2371
:1043E00084F8433097E74729BCD1002BBAD1012389
:1043F000B7E7B9F1660F18D1002963680BDD2161B9
:1044000013B92268D00702D501330B4423614FF062
:10441000000AA165DFE713B92268D20701D502338C
:10442000F4E70123F2E74FF067090E9B994205DBA1
:1044300023682161D807EAD54B1CE7E70029CCBFE8
:104440000122C1F102021344E0E723685A0507D4B0
:104450002369424631462846B84701302BD164E7EC
:10446000B9F1650F40F2DD80D4E91201002200238A
:1044700003F066F9002833D0012331462846354A37
:10448000B84701303FF451AFDDE90D239A4202DB1A
:104490002368D8070FD5DDE9092331462846B847F8
:1044A00001303FF442AF4FF0000804F11A090E9BAF
:1044B000013B434509DC23689B0700F10281E0686A
:1044C0000F9B9842B8BF184631E701234A46314650
:1044D0002846B84701303FF428AF08F10108E6E765
:1044E0000D9B002B38DC012331462846194AB8477A
:1044F00001303FF41AAFDDE90D23134302D12368E5
:10450000D907D8D5DDE9092331462846B847013017
:104510003FF40BAF4FF0000904F11A0A0D9B5B4208
:104520004B4501DC0E9B94E7012352463146284659
:10453000B84701303FF4F9AE09F10109EEE700BFD9
:10454000FFFFEF7F087B00080C7B0008147B00084E
:10455000107B0008187B00080E9AA36D9A42A8BF32
:104560001A46002A914637DC4FF0000B29EAE97918
:1045700004F11A02D4F858A0AAEB09035B4533DC16
:10458000DDE90D239A423BDB2368DA0738D40E9B22
:104590000D99A3EB0A02A3EB01099145A8BF91462F
:1045A000B9F1000F34DC4FF0000829EAE97904F191
:1045B0001A0ADDE90D239B1AA3EB090343457FF794
:1045C0007AAF0123524631462846B84701303FF4BE
:1045D000ACAE08F10108ECE71346314642462846E6
:1045E000B8470130C0D1A0E60123314628460B92DE
:1045F000B84701303FF499AE0B9A0BF1010BB9E7C4
:104600003146DDE909232846B8470130BFD18CE6A1
:104610004B463146284608EB0A02B8470130C2D162
:1046200083E60E9A012A01DCDB0737D501234246D7
:1046300031462846B84701303FF477AEDDE909231B
:1046400031462846B84701303FF46FAED4E9120135
:104650000022002303F074F8D8B90E9B08F1010280
:10466000013B31462846B84701300ED15DE60123B3
:104670004A4631462846B84701303FF456AE08F165
:1046800001080E9B013B4345F1DC534604F1500207
:10469000E0E64FF0000804F11A09F2E70123424670
:1046A000DFE701234A4631462846B84701303FF448
:1046B0003CAE08F10108E3680F995B1A4345F0DC52
:1046C000FDE64FF0000804F11909F4E72DE9F04781
:1046D000164699468A680B6907469342B8BF134647
:1046E000336091F843200C46DDF820800AB1013395
:1046F00033602368990642BF33680233336025680C
:1047000015F0060506D104F1190AE36832689B1A10
:10471000AB4228DC94F84320131E226818BF012303
:1047200092062DD44946384604F14302C047013071
:1047300020D02368E56803F00603042B18BF00258A
:1047400032684FF00006A36808BFAD1A226908BF9F
:1047500025EAE5759342C4BF9B1AED181A34B54299
:104760001AD1002008E00123524649463846C04786
:10477000013003D14FF0FF30BDE8F0870135C4E7C9
:104780003020E11881F843005A1C94F84510224467
:10479000023382F84310C5E70123224649463846D2
:1047A000C0470130E6D00136D9E700002DE9FF47C8
:1047B0000F7E9146782F80460C469A460C9D01F15B
:1047C000430207D8622F0AD8002F00F0D980582F53
:1047D00000F0A48004F1420584F842703AE0A7F1A9
:1047E0006303152BF6D801A151F823F045480008C2
:1047F00059480008D5470008D5470008D5470008A4
:10480000D547000859480008D5470008D547000893
:10481000D5470008D54700086749000889480008BF
:1048200049490008D5470008D547000889490008CC
:10483000D547000889480008D5470008D547000833
:10484000514900082B681A1D1B682A6004F14205B3
:1048500084F842300123A4E020682968060601F1AB
:1048600004030AD50E682B60002E03DA2D2376424E
:1048700084F843300A235E4819E00E6810F0400FB8
:104880002B6018BF36B2EFE72B682068191D29602E
:10489000010601D51E6802E04606FBD51E886F2F73
:1048A0000CBF08230A235248002184F8431065688E
:1048B000002DA8BF2168A560A4BF21F004012160DC
:1048C0000EB9002D4DD01546B6FBF3F103FB116771
:1048D000C75D05F8017D3746BB420E46F4D9082B6B
:1048E0000BD12368DE0708D5236961689942DEBFD2
:1048F000302305F8013C05F1FF35521B22614B4680
:1049000021464046CDF800A003AAFFF7DFFE0130A4
:104910004CD14FF0FF3004B0BDE8F087344881F847
:1049200045702968236851F8046B29601D0614D569
:10493000DF0744BF43F0200323601EB9236823F040
:10494000200323601023AFE7236843F02003236094
:104950007823284884F84530E3E7590648BFB6B2C3
:10496000E6E71546BBE72B682668181D61692860D5
:1049700035061B6801D5196002E07006FBD5198069
:10498000002315462361BAE72B6800211A1D2A600F
:104990001D686268284600F0DDFE08B1401B6060BB
:1049A00063682361002384F84330A8E72A46494618
:1049B00040462369D0470130ABD023689B0713D40E
:1049C000E068039B9842B8BF1846A4E7012332462B
:1049D00049464046D04701309BD00135E3680399F2
:1049E0005B1AAB42F2DCEBE7002504F11906F5E7B0
:1049F0001A7B00082B7B00080EB46FF0004100B555
:104A00009CB01DAB0290069007910491084809499B
:104A100053F8042B0591006802A9019301F084FB6F
:104A20000022029B1A701CB05DF804EB03B07047C3
:104A30000C0000200802FFFF034613F8012B002A98
:104A4000FBD1181A013870472DE9F74F03690C693B
:104A50000746A342C0F28280013C00F1140501F137
:104A6000140805EB8403019358F8243055F82420EA
:104A700001339A42B2FBF3F64FEA840B08EB840948
:104A800031D34FF0000E4046AC46F24650F8042BAE
:104A900093B206FB03E3120C4FEA134E9BB206FBE4
:104AA00002E2AAEB0303DCF800A04FEA124E1FFA61
:104AB0008AFA5344DCF800A092B2C2EB1A4202EB2D
:104AC00023429BB243EA024381454FEA224A4CF813
:104AD000043BDBD255F80B302BB9019B043B9D42C4
:104AE0001A462FD33C61384601F0CEF8002825DB6A
:104AF00028464FF0000C013658F8041BD0F800E0AF
:104B00008BB2ACEB03031FFA8EF213440A0CC2EB18
:104B10001E4202EB23429BB243EA0243C1454FEAE5
:104B2000224C40F8043BE7D255F8242005EB8403DF
:104B300022B9043B9D421A460AD33C61304603B079
:104B4000BDE8F08F1268043B002ACBD1013CC6E7D8
:104B50001268043B002AF0D1013CEBE70020EEE7AD
:104B60002DE9F04F16461F46446A99B00546CDE937
:104B70000467DDF8948074B9102000F0E3FD02466C
:104B8000686220B9EA21A84BA84801F0DDFBC0E922
:104B900001440460C4606B6A196851B15A6801230A
:104BA00093404A608B60284600F030FE00226B6A1A
:104BB0001A603B1EAFBF0023012223F00043059380
:104BC000A8BFC8F80030DDF81490994BB8BFC8F8FA
:104BD000002033EA090319D142F20F73249A1360BB
:104BE000C9F31303334300F07F85269B53B9914BE0
:104BF00022E0914B03930833269A1360039819B06F
:104C0000BDE8F08F8B4B03930333F5E7DDE9043404
:104C1000CDE90C34DDE90C010022002302F090FD07
:104C2000804658B10123249A1360269B002B00F084
:104C3000588582481860431E0393DFE716AB019343
:104C400017AB00932846DDE90C2301F0C5F8C9F342
:104C50000A548346002C7FD0DDE90C010D9BA4F2A1
:104C6000FF34C3F3130343F07F5141F44011CDF8F7
:104C70004C800022724B02F043F965A3D3E9002374
:104C800002F0F6FA64A3D3E9002302F03BF90646EA
:104C900020460F4602F082FA61A3D3E9002302F016
:104CA000E7FA02460B463046394602F02BF9064633
:104CB0000F4602F08DFD0022824600233046394621
:104CC00002F048FD48B1504602F068FA32463B46D1
:104CD00002F036FD08B90AF1FF3ABAF1160F58D8BA
:104CE000DDE90C01574B03EBCA03D3E9002302F0C3
:104CF00031FD00284FD000230AF1FF3A0F93169B95
:104D00001C1B631E099349BFC4F1010300230693D2
:104D1000002354BF06930993BAF1000F3DDB099BB2
:104D2000CDF838A05344099300230A93229B092B02
:104D300000F28C80052BC4BF043B2293229BC8BF8A
:104D40000024A3F10203D8BF0124032B00F28A80C0
:104D5000DFE803F02D4F4D5BDDE916431C4404F200
:104D60003243202BC3BFC3F1400304F2124009FABF
:104D700003F3C3F12003C6BF26FA00F0184306FA76
:104D800003F002F0FBF90123A1F1F871013C139348
:104D90006FE70123B2E70F90B1E7069BA3EB0A038D
:104DA0000693CAF100030A9300230E93BEE7002383
:104DB0000B93239B002B58DC4FF001094B46CDF899
:104DC0002090CDF88C900022686A4260042202F1A3
:104DD00014069E4241684ED9284600F0D7FC039045
:104DE00000284CD102464FF4D571174BCCE6012375
:104DF000DEE700230B93239B0AEB030909F1010370
:104E0000012B0893B8BF0123DDE70123F2E700BFC0
:104E100061436F63A787D23FB3C8608B288AC63FC0
:104E2000FB799F501344D33F497B0008607B000807
:104E30000000F07F457B00083C7B0008197B0008E0
:104E40000000F83F987C0008DE7B00080124002366
:104E50000B9422934FF0FF3900221223CDF82090BB
:104E60002392B0E701230B93F4E7DDF88C904B46D7
:104E7000CDF82090A7E7013141605200A7E76B6AA7
:104E8000039A1A60089B0E2B00F2A880002C00F0F9
:104E9000A580BAF1000F34DD9A4A0AF00F0302EB45
:104EA000C3031AF4807FD3E90034CDE910344FEA0C
:104EB0002A1416D0DDE90C01934B0327D3E908230C
:104EC00002F000FBCDE9040104F00F048E4E54B94A
:104ED000DDE91023DDE9040102F0F4FACDE9040173
:104EE00029E00227F2E7E10708D5DDE91001D6E95C
:104EF000002302F0BDF9CDE9100101376410083636
:104F0000E5E700F0A580DDE90C01CAF100047D4B66
:104F100004F00F0203EBC203D3E9002302F0A8F967
:104F200002270023CDE90401774E2411002C40F024
:104F30008480002BD2D10F9B002B00F08B80DDE909
:104F40000434CDE91034DDE9100100226F4B02F08A
:104F500001FC00287ED0089B002B7BD0B9F1000F0C
:104F600038DDDDE910010022694B02F081F94C4681
:104F7000CDE904010AF1FF380137384602F00EF995
:104F8000DDE9042302F074F90022624B01F0BAFF5C
:104F9000A1F15076CDE910011196002C5DD1DDE92B
:104FA000040100225C4B01F0ABFF02460B46CDE949
:104FB00004233346109A02F0EBFB002840F09C8259
:104FC000DDE90401109A06F1004302F0C3FB00285A
:104FD00040F09082DDE90C34CDE90434179B002BBE
:104FE000C0F25281BAF10E0F00F34E81454B03EB34
:104FF000CA03D3E90034CDE90634239B002B80F2A9
:10500000DB80089B002B00F3D78040F07282DDE943
:1050100006010022404B02F02BF9DDE9042302F0E7
:10502000ADFB089C2646002840F048823123039FB0
:105030000AF1010A07F8013B44E2E20705D5D6E987
:10504000002302F015F901230137641008366DE7DB
:10505000022770E7D046089C8FE70399294B21442B
:1050600012910B9903EBC403DDE9106753E90223A6
:10507000002955D00020294902F024FA3B46324647
:1050800001F03EFFCDE91001039FDDE9040102F0CC
:105090009FFB044602F082F802460B46DDE904015C
:1050A00001F02EFF02460B463034CDE90423DDE942
:1050B000102307F8014B02F04DFB002874D1DDE905
:1050C00004230020114901F01BFFDDE9102302F049
:1050D00041FB002840F0B780129B9F423FF47AAF1B
:1050E000DDE9100100220A4B02F0C2F80022CDE9EE
:1050F0001001DDE90401064B02F0BAF8CDE9040124
:10510000C3E700BF987C0008707C00080000F03FF7
:105110000000244000001C40000014400000E03F5C
:105120003046394602F0A4F8129BCDE91001039CE9
:105130001493DDE9040102F04BFB159002F02EF808
:1051400002460B46DDE9040101F0DAFE159B064636
:10515000303304F8013B129B0F469C424FF0000293
:1051600024D1DDE91001B04B01F0CCFE02460B4624
:105170003046394602F00CFB002863D1DDE91023EC
:105180000020A94901F0BCFE02460B4630463946D4
:1051900002F0E0FA00283FF41DAF149F7B1E149329
:1051A00017F8013C302BF8D0C2463BE09F4B02F091
:1051B0005FF8CDE90401BCE7039FDDE90489DDE97F
:1051C00006234046494602F07DF902F001FB044601
:1051D00001F0E4FFDDE9062302F04AF802460B463F
:1051E0004046494601F08CFE04F1300607F8016B99
:1051F000039EDDF820C0BE1BB44502460B4636D1E7
:1052000001F080FEDDE906238046894602F0C0FAFF
:1052100058BBDDE906234046494602F091FA08B141
:10522000E10722D42846594600F0F0FA00233B70EB
:10523000249B0AF101001860269B002B3FF4DEAC92
:105240001F60DBE427463B461F4613F8012D392A31
:1052500007D1039A9A42F7D13022039908F1010845
:105260000A701A7801321A709EE7D046EBE70022E6
:105270006E4B01F0FDFF002200238046894602F0BC
:105280005FFA00289BD0CDE70B9A002A00F0D0806F
:10529000229A012A00F3AE80139A002A00F0A68019
:1052A00003F233430A9C069F069A01211A44069290
:1052B000099A28461A44099200F05EFB0646002F20
:1052C0000CDD099B002B09DDBB42A8BF3B46069ABB
:1052D000FF1AD21A0692099AD31A09930A9BF3B1BC
:1052E0000B9B002B00F0A880002C10DD31462246DD
:1052F000284600F0FFFB5A4601460646284600F0C5
:1053000051FB80465946284600F080FAC3460A9B66
:105310001A1B04D05946284600F0ECFB83460121B5
:10532000284600F029FB0E9B0446002B40F38680A4
:105330001A460146284600F0DDFB229B0446012B5D
:105340007FDD4FF00008236904EB8303186900F048
:10535000C5FAC0F12000099B184410F01F0000F0AE
:105360009280C0F12003042B40F38A80C0F11C001E
:10537000069B074403440693099B03440993069B39
:10538000002B05DD59461A46284600F00DFC8346E1
:10539000099B002B05DD21461A46284600F004FC37
:1053A00004460F9B002B70D02146584600F06CFC41
:1053B00000286ADA002359460A22284600F048FAF3
:1053C0000B9B83460AF1FF3A002B00F09481314693
:1053D00000230A22284600F03BFAB9F1000F0646E6
:1053E00000F39380229B022B57DC8EE0169BC3F1C7
:1053F000360357E7089B5C1E0A9BA342B7BF0A9B74
:105400001C1BE21A0E9BBEBF0A949B180E93089BAE
:10541000B8BF0024002BBBBF069B089A069F9F1AAB
:10542000ACBF089B00233FE70000E03F00002440A2
:105430000A9C069F0B9E42E70A9A6BE7229B012B70
:1054400019DC049BBBB9059BC3F313039BB9059BF4
:1054500023F000431B0D1B0583B14FF00108069B91
:1054600001330693099B013309930E9B002B7FF4B4
:105470006AAF01206FE74FF00008F6E79846F4E7BF
:105480003FF47DAF18461C3072E7089B002B36DCDA
:10549000229B022B33DDDDF82090B9F1000F0DD1F6
:1054A00021464B460522284600F0D2F90146044623
:1054B000584600F0E9FB00283FF7B8AD239B039F57
:1054C0006FEA030A4FF000082146284600F09EF9D3
:1054D000002E3FF4A7AEB8F1000F05D0B04503D0C1
:1054E0004146284600F092F93146284600F08EF9F0
:1054F00098E600242646E1E7C246264696E50B9B41
:10550000DDF82090002B00F0FD80002F05DD3146F6
:105510003A46284600F048FB0646B8F1000F5CD03A
:105520002846716800F032F9074628B9024640F271
:10553000EA217F4BFFF728BB326906F10C010232EA
:1055400092000C3000F014F901223946284600F090
:105550002BFBB0460646039B01330893039B4B4449
:105560000A93049B03F001030993089B2146013B26
:1055700058460493FFF768FA0346414630330690D5
:1055800058460B9300F080FB324681462146284660
:1055900000F096FBC26807460B9B02BB01465846CB
:1055A00000F072FB02460B9B39462846CDE90B32D0
:1055B00000F02CF9229B0C9A089F43EA0201099BF8
:1055C0000B430B9B0DD1392B29D0B9F1000F01DD15
:1055D000069B3133049A137076E73046B9E701220F
:1055E000E2E7B9F1000F06DB229941EA09090999BE
:1055F00059EA010120D1002AECDD59460122284652
:10560000089300F0D1FA2146834600F03DFB0028C4
:10561000089B02DCDED1DA07DCD5392BD8D139235F
:10562000049A13703B461F4617F8012C013B392A98
:1056300050D001321A7047E7002A03DD392BEED033
:105640000133C7E7089A0A9902F8013C8A422AD036
:10565000594600230A22284600F0FAF8B04583464E
:105660004FF000034FF00A024146284607D100F0F0
:10567000EFF880460646089B0133089375E700F073
:10568000E7F83146804600230A22284600F0E0F879
:105690000646F0E7B9F1000FCCBF4F4601274FF0A7
:1056A0000008039A1744594601222846089300F03F
:1056B0007BFA2146834600F0E7FA0028B2DC02D1EB
:1056C000089BDB07AED43B461F4613F8012D302A5A
:1056D000FAD0F9E6039A9A42A5D131230AF1010AD8
:1056E00079E7144BFFF7A8BA269B002B7FF481AA19
:1056F000114BFFF7A1BAB9F1000F03DC229B022B7B
:105700003FF7CBAE039F21465846FFF79DF9039A1A
:1057100000F1300307F8013BBA1A9145BADD59464A
:1057200000230A22284600F093F88346EBE700BFE7
:10573000DE7B0008187B00083C7B000800487047AF
:1057400060010020024B0146186800F01DBC00BF3C
:105750000C000020034610B5C9B20244934218461B
:1057600001D1002003E0047801338C42F6D110BD52
:105770000A44914200F1FF3300D1704710B511F88F
:10578000014B914203F8014FF9D110BD70B5466A43
:1057900004460D4676B91020FFF7D4FF024660623A
:1057A00020B96621174B184800F0CEFDC0E901660C
:1057B0000660C660666AF36883B1636ADB6853F8A3
:1057C0002500B8B9012101FA05F6721D20469200A4
:1057D00000F05EFB60B1C0E901560EE02122042119
:1057E000204600F055FB636AF060DB68002BE4D1D3
:1057F000002070BD026843F825200023C0E9033370
:10580000F7E700BF497B0008EF7B000870B5466AE8
:1058100005460C4676B91020FFF794FF02466862F1
:1058200020B98A21084B094800F08EFDC0E90166C5
:105830000660C6603CB16B6A6268DB6853F8221090
:10584000216043F8224070BD497B0008EF7B0008CF
:105850002DE9F04107460C461E4600200D6901F176
:10586000140CDCF80030013099B202FB01611E0C0F
:105870000B0C02FB063389B201EB034185424FEA70
:1058800013464CF8041BECDC0EB3A368AB4219DCE6
:10589000616838460131FFF779FF804628B9024632
:1058A000B5210C4B0C4800F04FFD226904F10C01AE
:1058B000023292000C30FFF75BFF21463846FFF7BB
:1058C000A5FF444604EB850301355E612561204652
:1058D000BDE8F081DE7B0008EF7B0008020C1204BB
:1058E0000346CAB90304102013F07F4F04BF1B0204
:1058F000083013F0704F04BF1B01043013F0404F09
:1059000004BF9B000230002B05DB13F0804F00F139
:10591000010008BF202070470020E5E70368024629
:1059200013F007000BD0D90721D4980749BF5B08B3
:105930009B08012013605CBF02201360704799B27E
:1059400009B910201B0CD9B209B908301B0A190774
:1059500004BF1B090430990704BF9B080230D90714
:1059600003D45B0800F1010003D0136070470020EE
:10597000704720207047000010B50C460121FFF74A
:1059800005FF024628B94FF4A071044B044800F00B
:10599000DBFC01234461036110BD00BFDE7B000816
:1059A000EF7B00082DE9F04F91460A69D9F81030D5
:1059B0000C469A42BEBF0B464C4699462769D9F819
:1059C00010A0A368616807EB0A06B34285B0B8BFB0
:1059D0000131FFF7DBFE30B9024640F25D11434B67
:1059E000434800F0B1FC00F114052B46002205EB02
:1059F0008608434521D304F1140303EB870709F11B
:105A0000140303EB8A0202923A1B153A22F00302B6
:105A1000043204F115018F4238BF04220192029A28
:105A200003939A420CD8002E03DD58F8043D002B56
:105A300059D0066105B0BDE8F08F43F8042BD8E7D4
:105A4000B3F800A0BAF1000F23D0A9464FF0000C24
:105A500004F1140E5EF8042BD9F800101FFA82FB33
:105A600089B20AFB0B116144D9F800C0120C4FEA4D
:105A70001C4C0AFB02C202EB114289B241EA02410C
:105A800077454FEA124C49F8041BE3D8019A45F8D0
:105A900002C0039A0433B2F80290B9F1000F20D08B
:105AA000AE464FF0000A296804F1140CBCF800B0AF
:105AB000BEF8022089B209FB0B22924441EA0A4156
:105AC0004EF8041B5CF8042BBEF80010120C09FB06
:105AD0000211674501EB1A414FEA114AE6D8019AD3
